:020000040800F2
:1000000000010020D1020008A103000891030008AC
:100010009103000891030008910300089103000870
:100020009103000891030008910300089103000860
:10003000910300089103000891030008B10700082C
:100040009103000891030008910300089103000840
:100050009103000891030008910300089103000830
:1000600091030008C10C000891030008F123000867
:100070009103000891030008111900089119000864
:10008000810B000891030008910300089103000808
:10009000910300089103000831160008910300083D
:1000A00091030008910300089103000891030008E0
:1000B00091030008910300089103000891030008D0
:1000C00008B500F085FA01F0A3FD034801F000FF38
:1000D00000F08EF9FEE7C046003801400000000045
:1000E000F0B544464D4656465F46F0B46B460B604D
:1000F00003689D46F0BCA046A946B246BB46F0BD8B
:1001000062B6281CA047002300F0A2F900F0E8F92D
:10011000014A024B1360FEE704ED00E0000000809E
:1001200002B4714649084900095C49008E4402BC8A
:100130007047C04600000000000000000000000002
:10014000002934D00123002210B488422CD301248A
:100150002407A14204D2814202D209011B01F8E71F
:10016000E400A14204D2814202D249005B00F8E7D8
:10017000884201D3401A1A434C08A04202D3001B04
:100180005C0822438C08A04202D3001B9C08224337
:10019000CC08A04202D3001BDC082243002803D075
:1001A0001B0901D00909E3E7101C10BC70470028A7
:1001B00001D00020C04307B4024802A140180290B9
:1001C00003BDC046DD0000000029F0D003B5FFF7F5
:1001D000B9FF0EBC4243891A1847C0460000000010
:1001E000002941D010B4041C4C40A4460123002235
:1001F000002900D54942002800D5404288422CD32E
:1002000001242407A14204D2814202D209011B0128
:10021000F8E7E400A14204D2814202D249005B0027
:10022000F8E7884201D3401A1A434C08A04202D38F
:10023000001B5C0822438C08A04202D3001B9C08D0
:100240002243CC08A04202D3001BDC082243002832
:1002500003D01B0901D00909E3E7101C6446002CF8
:1002600000D5404210BC7047002806D003DB0020B8
:10027000C043400801E08020000607B4024802A104
:100280004018029003BDC046190000000029EBD0C1
:1002900003B5FFF7A7FF0EBC4243891A1847C046B3
:1002A0007047C04600000000000000000000000091
:1002B0007047000000000000000000000000000087
:1002C00000B5FEE700000000000000000000000094
:1002D00072B61F4B83F30988022080F31488BFF3A2
:1002E0006F8F1C481A4C1C49884202D21B4902C01D
:1002F000F9E71B4AA24202D2184B08C2FAE700F003
:10030000DFFA0023174A18489C18844204D2174881
:10031000C15804332160F5E7154B16498B4202D2D0
:10032000002204C3F9E7FFF7C3FF134C134B9C42B1
:1003300002D202CC8847F9E7FFF7C2FE104C114AFF
:10034000944202D201CC8047F9E7FFF7B9FFC046DB
:100350008001002000000020000100205555555567
:10036000000100208001002098010020D83C0008F6
:1003700098010020940D0020C0000008C000000873
:10038000C0000008C00000080000000000000000DD
:1003900000B5FEE7000000000000000000000000C3
:1003A000EFF30983203383F3098862B670470000B6
:1003B00000B50F3011D072B6EFF30983203B83F301
:1003C000098880225004054AD8611168506881422A
:1003D00001D0034A00E0034A9A6100BD9801002061
:1003E0000D010008100100080000000000000000DE
:1003F0000F4B104A196A10B50A401A6200230E48C2
:100400000E4918184268CC18243AE260C4680069A2
:1004100014610B4C143350611462782BEFD1081C1B
:100420000C30486008608431FFF75AFE62B610BD98
:1004300000ED00E0FFFF00FF3033000898010020CE
:1004400001010008000000000000000000000000A2
:1004500000B572B6FEE700000000000000000000DA
:1004600000238160044903714A6800B5838190428A
:1004700000D2486000BDC046980100200000000086
:1004800038B5144B1A891C1C01321A810C341D1CFE
:10049000A089002815D0A18901398AB2A281002A39
:1004A0000FD12379032B03D1A0680268013202E047
:1004B000022B01D1A06802600121201C4942FFF7F4
:1004C000CFFF62B6143472B62A1C84329442DFD154
:1004D00038BDC04698010020000000000000000068
:1004E00008B5044B19685868814202D01860FFF7BC
:1004F000F7FD08BD9801002000000000000000008A
:1005000010B5094C23681871201C99810C300279B0
:10051000002A07D1191C60602060FFF7E1FD206808
:10052000806810BD1430F2E7980100200000000040
:1005300008B5011C72B60120FFF7E2FF62B608BDE4
:1005400008B50368002B0BDC094A91420CD0013B33
:100550000360084B1A6890600320FFF7D1FF05E0A5
:10056000013B0360002001E00120404208BDC0467D
:10057000FFFF0000980100200000000000000000C4
:1005800008B572B6FFF7DCFF62B608BD00000000D8
:1005900008B50368021C01330360002B0BDC002349
:1005A0000549081C0C30C018143359589142F7D132
:1005B0000021FFF755FF08BD980100200000000052
:1005C00008B572B6FFF7E4FFFFF78AFF62B608BD11
:1005D00008B500F025F8044800F0BAF800F078F902
:1005E00000F006F808BDC0462034000800000000F6
:1005F00008B500F0EDF808BD0000000000000000A4
:100600000F231840024A80008901831859607047FF
:1006100008ED00E000000000000000000000000005
:10062000194B10B51A6901225042002218611A6153
:10063000D968164C2143D960DA60D86980214C050D
:1006400004431349DC610C688020400020430860AB
:10065000196AC024A000084080218C00A04203D069
:100660008020410219621A621C6A80231B02064A1A
:100670001C4207D1106A80218C0004431462106A66
:100680000343136210BDC04600100240FFFFBFFFCE
:1006900000700040000000000000000000000000AA
:1006A0001E4B01211A6800B50A431A6018681B4ADC
:1006B0008007FBD51068F9210140002011605060CF
:1006C00058680C21154A0842FAD1516A01200143A9
:1006D0005162596A114A8807FBD5A1208103002085
:1006E0005160D06210631068802149040143116099
:1006F00018680A4A8001FBD5094911200860516831
:1007000002200143516058680C21044A0140082925
:10071000F9D1936901200343936100BD00100240A9
:100720000020024000000000000000000000000067
:100730004B688A684360CB6882600A69C360426123
:100740004B698A6909680362426201607047000070
:10075000104BBC22596910B5041CD00308435861E2
:100760009023D805211CFFF7E3FF211C1C310A4808
:10077000FFF7DEFF211C38310848FFF7D9FF211CA5
:1007800054310748FFF7D4FF211C70310548FFF7AB
:10079000CFFF10BD001002400004004800080048D0
:1007A000000C004800140048000000000000000099
:1007B00010B5744672B6FFF763FE62B6201CFFF7F1
:1007C000F7FD10BD00000000000000000000000068
:1007D00008B5064A064B002007215A609860196048
:1007E000012358420221FFF70BFF08BD7F250000BF
:1007F00010E000E000000000000000000000000029
:1008000008B501F0C5FD0000000000000000000078
:1008100008B500F0D5F900F0D3FF0000000000009B
:1008200008B500F0FDF80000000000000000000026
:1008300008B500F0E5FA000000000000000000002C
:1008400008B500F09DF80000000000000000000066
:1008500010B5164C636A5A0007D5154801F040FCE4
:10086000626A8020410411436162C024600002F08A
:10087000E7FB7E2002F0F4FB0E4B8022986811010A
:10088000014399607F2002F00BFC0B4801F028FC2B
:100890000A4C7D20FFF74CFE6369802082005A409D
:1008A00062617F2002F0F4FBF2E7C04600100240D4
:1008B000C033000800580140D63300080008004843
:1008C00008B5FFF7EDFE08BD0000000000000000C5
:1008D000094B06215A6809480A435A604369084A85
:1008E000084913434361C3690B43C3618269064BE3
:1008F0001A4382617047C046005801400010024010
:1009000041005E0003092000005A060000000000BC
:1009100000B5194B021C1988012081431980198BDD
:100920007020814319831988082081431980107829
:10093000032818D8FFF7F4FB1702050C1A8B502078
:1009400013E0198B30200143198352885A630EE05B
:10095000198B302001431983528808215A63188863
:100960000843188003E01A8B402002431A831A8838
:1009700001210A431A8000BD00440140000000002C
:10098000F8B51C481C4C1D4A1D4900232678658873
:1009900003808380C26201851A49012210270F80DB
:1009A0004A808B818D6002F053F9174801F098FB63
:1009B0001648FFF7BDFD164B1878410702D4371CC7
:1009C0003E1CF5E72778B74202D16688AE42F7D0E1
:1009D000104A65880221505E99880123884203DA13
:1009E0001678334000D00323201C2370FFF790FFBC
:1009F000E6E7C0460044014080010020FFFF000000
:100A00007FBBFFFF40080020B034000877010000E2
:100A1000CC0C00208C0D0020000000000000000025
:100A2000F0B54B4C89B04B4A694600262F23201C59
:100A300003AD01920B800E814E80012702F0B0F8C9
:100A400070218023BB402980201C291C2B826F80B1
:100A5000AE8102F0FDF8291C201C02F039F9291C96
:100A6000201C02F075F9291C201C02F0B1F9201C91
:100A7000082102F0D5F8A2898026374D700217436D
:100A8000A7812860354801F02BFB6420FFF750FD5B
:100A9000334D29780129F8D0324B5A78002AF4D006
:100AA00031490F78FE0709D51E78B70706D500F043
:100AB00027FE2E4E238C3343238436E00226885FA4
:100AC000998888422DDD1B780126334229D0208C5D
:100AD000264F1F4B384320846420022A25D1244905
:100AE0000A78032A21D89719FAB20A70198C214F73
:100AF0000F401F84032A0AD0042A0DD0022A03D0F3
:100B00001A8C16431E8410E01A8C112101E01A8CF5
:100B100019490A431A8408E01E8C144F37431F8476
:100B200003E0134A00251570AFE7FA239E00012762
:100B300070432F708025A900064D104A281A118392
:100B40006063A063E063206421880F4327809CE7F3
:100B500000040040FFFF000000E100E0D034000886
:100B600055080020CC0C00208C0D00201111000035
:100B700054080020EEEEFFFF1101000000040048C1
:100B800000B50A4B0122198A11420DD0188A0021A2
:100B900090431882188C064A02401A84054B802024
:100BA0001970054982004A8300BDC0460004004018
:100BB000EEEEFFFF55080020000400480000000092
:100BC00070B5002092B001F0BBFE012001F0A8FE3C
:100BD000334801F0CDFC33482021334B089080206E
:100BE00080220A9180260F918101540000250793ED
:100BF0001091F3002A4807A90E930C9209950B95C2
:100C00000D94119501F0F4FC2548012101F020FD1F
:100C10002648022101AC01F083FC0121234801F0A8
:100C20006FFC201C01F014FC01260195A5602561D4
:100C30001E480425211C2671656101F0F1FB1B484B
:100C4000311C072201F034FC18480221072201F070
:100C50002FFC1648291C072201F02AFC8022510291
:100C60001248072201F024FC301C01F009FC0F4857
:100C700001F026FC0D48311C01F0F2FB0B480C4939
:100C800001F056FC0028F9D0084801F031FC094B6E
:100C900001201870084801F023FA12B070BDC04658
:100CA0000800024058080020402401400024014070
:100CB0000100000156080020F03400080000000088
:100CC00008B5022001F0E4FC002802D0012001F068
:100CD000E7FC08BD0000000000000000000000006C
:100CE00073B5114C0A2066682368002100960F4AEC
:100CF00000F07EFC0E4D0123297819201940009642
:100D0000236802D000210B4A00E00B4A00F070FC7F
:100D10002878012250402870281C00F091FF0748D5
:100D2000FFF706FC73BDC046C0390008C035000897
:100D3000CC0C0020A03700089037000810270000D6
:100D400073B5114C0A2066682368002100960F4A8B
:100D500000F04EFC0E4D0223297819201940009610
:100D6000236802D000210B4A00E00B4A00F040FC4F
:100D70002878022250402870281C00F061FF0748A4
:100D8000FFF7D6FB73BDC046C0390008D135000857
:100D9000CC0C0020A0370008903700081027000076
:100DA00073B5114C0A2066682368002100960F4A2B
:100DB00000F01EFC0E4D04232978192019400096DE
:100DC000236802D000210B4A00E00B4A00F010FC1F
:100DD0002878042250402870281C00F031FF074872
:100DE000FFF7A6FB73BDC046C0390008D93500081F
:100DF000CC0C0020A0370008903700081027000016
:100E00007FB5022000F094FA00F032FB1C48012369
:100E100041681C4D1C4C80269E402B701B4A036869
:100E2000268328200091142100F0E2FBFA225000D2
:100E3000FFF77EFB6683164801F052F9154801F072
:100E40004FF900F035FB00232B7020690E4E810412
:100E500008D5736980225000584070610E48FFF732
:100E600067FBF2E70D4801F03BF900F059FB00F099
:100E7000FFFA01210A48297000F07AFFDEE7C04638
:100E8000803C00089808002000080048E53500086C
:100E9000ED35000805360008E204000013360008AE
:100EA000B037000800000000000000000000000053
:100EB00013B5041C02F034FA074B1A785043C0B241
:100EC00041084022501A5968C0B200911B680021A5
:100ED000221C00F08DFB13BD803C000800000000C8
:100EE000F0B5002487B0029400F01AFB2148FFF708
:100EF000DFFF201C05A901F0ABF91F4D0F206E6824
:100F00002B68009632211D4A00F072FB00962B6878
:100F100019203C2105AA00F06BFB2826184B6427FA
:100F200058881988784380B2FFF70AF985B2391CCE
:100F3000281CFFF705F987B2EA1903920299039B6F
:100F4000FA20994202DBFFF7F3FAF7E7013E40008F
:100F5000F6B2FFF7EDFA002EE0D10A486200111850
:100F6000EF1B01348F810295062CBDD100F068FE85
:100F700007B0F0BD20360008803C00082F3600087E
:100F8000A80C0020CC0C0020000000000000000095
:100F9000F0B5294885B0FFF78BFF284F00207C680B
:100FA0003B6800941921264A00F022FB0A20011C0C
:100FB00000943B68234A00F01BFB2348FFF7B8FA74
:100FC00028240025214B281C9A88954200D2101C09
:100FD000FA21013C85B2E4B24800FFF7A9FA002CDF
:100FE000F0D100F09DFA2BB2194E002B09DA786887
:100FF0003B6800900A21201C164A00F0F9FAF471AF
:1010000009E07A683B680092201C0521124A0127FA
:1010100000F0EEFAF771301C758000F011FE0A48FE
:101020000E4DFFF785FA29698A0402D5FA2460007B
:10103000F6E705B0F0BDC04634360008C0390008F8
:10104000493600085636000810270000A80C00207A
:10105000CC0C00206A3600087B36000800080048E7
:1010600073B51448FFF724FF134C0A206668236801
:1010700000960021114A00F0BBFA114D2B78009622
:10108000012B07D11920236800210E4A00F0B0FA85
:10109000022006E01920236800210B4A00F0A8FA7C
:1010A00001202870281C00F0CBFD0848FFF740FA0B
:1010B00073BDC0468D360008C0390008D935000818
:1010C000CC0C002096360008A2360008102700003D
:1010D00073B53C48FFF7ECFE3B4C00206568236885
:1010E0000A213A4A009500F083FA2368009500200F
:1010F0001421374A00F07CFA364E33780095022BE3
:1011000004D1236819201421334A0AE0012B04D1A9
:10111000236819201421314A03E02368304A19203A
:10112000142100F065FA65680020009523681E21EF
:101130002C4A00F05DFA30780095820704D52368C8
:1011400023201E21264A03E02368274A23201E214C
:1011500000F04EFA65682821009523680020234A94
:1011600000F046FA31780095CA0704D523681420A8
:1011700028211B4A03E023681B4A1420282100F081
:1011800037FA65681A4A009523680020322100F07A
:101190002FFA32780095520704D532202368011CBB
:1011A0000F4A03E0322023680F4A011C00F020FAA6
:1011B000104C2669B20404D5FA235800FFF7B8F999
:1011C000F6E773BDA9360008C0390008C03700082B
:1011D000B1360008CC0C002096360008A236000874
:1011E000A0370008BB36000890370008C436000856
:1011F000C836000800080048000000000000000099
:10120000F0B587B0002303AC0393636023813548B6
:1012100001698A0464D53448FFF74AFE334D344AE5
:101220006E682B68009600200A2100F0E1F9314F2A
:10123000211C388801F00CF82B68221C009619201C
:101240000A2100F0D5F92B682B4A009600201421C2
:1012500000F0CEF97888211C00F0FAFF2B68221CE0
:1012600000962320142100F0C3F92B68234A00962E
:1012700000201E2100F0BCF9B888211C00F0E8FF16
:101280002B68221C00962D201E2100F0B1F92B683E
:101290001B4A00960020282100F0AAF9F888211C9A
:1012A00000F0D6FF2B68221C00963720282100F082
:1012B0009FF92B68134A00960020322100F098F91C
:1012C000F888211C00F0C4FF221C00962B681E2009
:1012D000322100F08DF9FA225000FFF729F996E744
:1012E00007B0F0BD00080048D5360008C039000836
:1012F000E1360008A80C0020E6360008BB360008DE
:10130000ED360008F836000800000000000000007C
:10131000011C08B5034801F0E3FB024B18890206E3
:10132000FBD408BD003001400000000000000000B8
:10133000F8B54B4C8025AF01061C4A4800F0E0FE92
:1013400032206783FFF7F4F832202783FFF7F0F8A5
:10135000802045016583AE20FFF7DAFF002065831A
:10136000FFF7D6FF10206583FFF7D2FF402065838B
:10137000FFF7CEFF81206583FFF7CAFF65839F20BB
:10138000012E00D0CF20FFF7C3FF8021A12065836D
:101390004F01FFF7BDFFA6206583FFF7B9FFA4202B
:1013A0006583FFF7B5FFA8206583FFF7B1FF3F20F6
:1013B0006583FFF7ADFFD3206583FFF7A9FF00200A
:1013C0006583FFF7A5FFD5206583FFF7A1FF802088
:1013D0006583FFF79DFFD9206583FFF799FF204BB9
:1013E00022205F83012E00D0F120FFF791FF8022A1
:1013F0005501DA206583FFF78BFF12206583FFF725
:1014000087FFDB206583FFF783FF40206583FFF7BD
:101410007FFF20206583FFF77BFF00206583FFF7B8
:1014200077FFA1206583FFF773FF0D4FC820658309
:10143000FFF76EFF8D206583FFF76AFF7D83102025
:10144000012E00D01420FFF763FF074E0748002449
:1014500032213480B48074623085F162F8BDC046B8
:10146000000400480030014000480140BF5D00001A
:1014700008B58022094B50015883AF20FFF748FF81
:10148000074B012299898020114399810549C003A6
:101490000860188802431A8008BDC046000400484E
:1014A0000048014000E100E00000000000000000F2
:1014B00008B50A4B01221988914319809889802127
:1014C0009043988180230648DA03064BC2674A019D
:1014D0005A83AE20FFF71CFF08BDC04600480140FC
:1014E00004E100E0000400480000000000000000EB
:1014F00043B200B5002B0DDB3F290BD8CA08D3013E
:101500000722C0181140044B01228A40111C1A5CAA
:101510001143195400BDC046990800200000000086
:1015200008B5802202480021D20001F069FE08BD02
:1015300099080020000000000000000000000000EA
:1015400082B0F0B585B000AFDCB27960FB62191CE7
:10155000E31DB860D8080E0CC50069464B1B9D46BC
:101560006846F6B2F860964203D82F21CB5D9342CD
:1015700001D2FE680EE0203A62433E6B0020C5B205
:10158000A54205D2B518295CFB6819540130F6E76D
:10159000002520E0FA68B01AC5B2A542F8D2FF21B2
:1015A00031700136F6E7F868F343415D083399403E
:1015B0000A1C110607D5B8687B6841199A19C8B288
:1015C000D1B2FFF795FF0136B6B22D23DA5DB242F4
:1015D000E9DA0135ADB2A54201D20026F5E7BD46F4
:1015E00005B0F0BC08BC02B01847000000000000C5
:1015F00082B0F7B5061C0F1C151C09930024281C8B
:1016000001F08EFE84420FD209AB18780A9B01309C
:1016100060433118C8B22A5D0093391C099B01341C
:10162000FFF78EFFE4B2EAE7F7BC08BC02B0184748
:1016300038B5124B0122198A11421ED0188A104C5B
:10164000802590436D01188265830020FFF760FEBE
:1016500065831020FFF75CFE65834020FFF758FE8E
:10166000802325830749DA00074800F0A1FD0748D9
:101670008022416954004C40446138BD004801401B
:10168000000400489908002000300140000800488C
:10169000074B10229989802011439981C3059989AC
:1016A00008200143998199890A439A817047C0466D
:1016B000002C0140000000000000000000000000BD
:1016C00010B50A4B64205A8819885043FEF738FD3C
:1016D000002382B206495C006418A189D8B2914205
:1016E00003D90133052BF5D1002010BDA80C002033
:1016F000CC0C0020000000000000000000000000F2
:1017000008B5FFF7DDFF024B1818007E08BDC04684
:10171000CC0C0020000000000000000000000000D1
:1017200007B5C309402101AA0B4313707F2318405A
:101730005070022303482E2100F08AFB431E98417B
:101740000EBDC04600540040000000000000000034
:1017500030B50023191C181C1A1C124C1C192588A2
:10176000083352196588A48840190919802BF4D1CF
:101770000D4B05090D4C080912099A80DD8018816E
:10178000E1790B4B6588002902D1AA42494102E068
:1017900000219542494118780122114090430143AC
:1017A000197030BD58080020A80C0020CC0C002077
:1017B0008C0D002000000000000000000000000070
:1017C000F0B548488BB007AD474B802100272880F3
:1017D000C805291C04AC2F816F80089301F0E0F943
:1017E000802010230822211C0126C005238122808D
:1017F0006780A680E78001F053FB80220C21D00592
:101800002180211C01AE01F04BFB00200F237070E2
:101810000121301C3370B17001F052F88022D005E4
:10182000012101F005FA2F482F4B2880291C2F4851
:101830006B602F816F8001F0B3F90221012261807A
:10184000E780211C29480C251027A28025802781AC
:1018500001F026FB01200023B0700E24301C7370B1
:10186000347001F02DF80121204801F0E1F9204801
:1018700000F0C6FA1F4EB079FFF752FF1E48FA2556
:1018800000F02EFCFFF764FFFFF702FF6800FEF791
:101890004FFE1A4800F024FC194F02A9388800F0C6
:1018A000D7FC02A800F01CFC164C201C00F018FC11
:1018B000154800F015FC02A9B88800F0C9FC02A880
:1018C00000F00EFC201C00F00BFC104800F008FC9F
:1018D000F88802A900F0BCFC02A800F001FC201C62
:1018E000CDE7C046DF010000FFFF0000002C0140F3
:1018F00000540040CC0C0020903C0008A83C00089C
:10190000A80C0020D3330008AE3C0008BD3C000802
:10191000F8B5194B1022198A1C1C11422BD0188AB9
:10192000164F9043188239783E1C002905D11C6C53
:1019300013480121048039701DE001291BD1104F8B
:101940001A6C38880F4B95B211041D80090C854222
:1019500002D880225302C918091A0B48FEF7F0FB7F
:101960003C225043094B3D80002518803570A689E4
:101970001027BE43A681F8BD002C0140B80C002002
:101980009E0C0020A00C0020A0860100A80C0020C6
:10199000F7B58023D805018A0822644C644D1142B2
:1019A00038D0038A9343634A03821778002F02D109
:1019B000C66B61493BE0012F6DD15F4BC06B5F4946
:1019C0001A8886B207040E80390C964202D880200D
:1019D0004302C918891A5A4A177878B283005948BD
:1019E0000093FEF7ADFB01370099FAB257B2605091
:1019F000012F02DC5248027002E0514900230B70B3
:101A00004D4A4C4F1680802000263E70C0058289CA
:101A100008273EE0068A10273E423CD0038A4A4A05
:101A2000BB4303821678002E05D1066C474901237B
:101A30000E8013702FE0012E2DD1006C444F434BCC
:101A400086B23E801F8801040B0CBE4202D8802261
:101A500050021B18D91B3F4F00233A78684600926A
:101A6000C256900001903748FEF76AFB009B01992F
:101A700001336850D8B242B2012A00DD002038702C
:101A8000324F31493E80802300260E70D80582896E
:101A90001027BA4382812A4900228E562E4F002EEB
:101AA00002D16068236801E020686368C11A294A8E
:101AB000398000269057294B002802D16868296890
:101AC00000E003CD451A1A4924680A681D80244E97
:101AD000944201DB748000E072803F881B8839B239
:101AE00018B2204D814201DB2F7100E02B71FA24E6
:101AF000401AA2005043FEF773FB1B4B87B26F8066
:101B000071881889814207D936885C89A64203D931
:101B10003AB29F88BA4203DC2B780220834302E06A
:101B20002B7802210B432B70F7BDC046BC0C002064
:101B3000C40C0020B60C0020A40C0020A60C002031
:101B4000B70C0020A08601009C0C0020A20C0020F5
:101B5000B20C0020B90C00209A0C0020B40C00201C
:101B6000A80C00208C0D0020CC0C002000000000F0
:101B7000F0B5264D8FB02421041C281C00F0E8FC91
:101B800004A92A1C8C46C8CAC8C10391C8CAC8C1C6
:101B9000019202910F1C161C0ECE0EC736683E60D5
:101BA0006B6A984223D000212822201C01F028FBD8
:101BB0000625FA2232271E2011010A2625703C250F
:101BC00046236780A680A071208161816576A57615
:101BD00037262777642078275522611CA51C237699
:101BE000E6766777A077E277CB77EB770BE0201C80
:101BF0006146A4C9A4C0039AA8CAA8C0029B011C3C
:101C0000A1CBA1C10E60201C0FB0F0BD007C00086C
:101C100030B58BB06846084DFFF7AAFF6C462A1C0A
:101C20000BCC0BC2131C23CC23C31A1C23CC23C202
:101C3000206810600BB030BDCC0C0020000000000C
:101C400038B5051C00F034FD342000F049FD0F4884
:101C500000F09EFD042803D000F03AFD012014E0BE
:101C6000281C242100F074FC00246862E3B2980070
:101C70004159201C00F064FD0428EDD104490434CE
:101C80008C42F3D100F024FD002038BD007C000818
:101C9000047C0008000000000000000000000000BC
:101CA000F0B587B0061C0491FFF73AFC2E4C0020DB
:101CB0006168236800913268011CFFF799FC0025D8
:101CC000B2880623052A00DC531C9D424ADAEF0045
:101CD0006A461021781B8B5A0130C7B218B205280A
:101CE00000DA05231AB295423CDC0499052910DC80
:101CF000A94207D1606823680090391C00203E2269
:101D0000FFF71EFCB388049A9A4215DC0C226A4342
:101D10001CE00498049A05382B1803939A4207D1C3
:101D20006168236800910020391C3E22FFF708FCFF
:101D3000B088049B834206DD636807200093391C4A
:101D400023680A4A09E003990C224A43B168606893
:101D5000236852580090391C07200135FFF748FCD2
:101D6000EDB2ADE707B0F0BDC0390008D03C0008C7
:101D700070B5051CFA20FEF7DBFB281C0021FFF7DD
:101D80008FFF00241C4B1A69110407D4631EDCB2B8
:101D90001A0611D52E790136F4B20DE01869410406
:101DA0000CD40134A988E6B272B20131D40FC8173D
:101DB000914244416442344061B215E019698A0499
:101DC00015D4AB8866B29E4215DC0C227243A8681B
:101DD00081184B68002B01D0984704E088680028E0
:101DE00001D0FFF7C5FF311C281CFFF759FF03483E
:101DF000FEF79EFBC6E770BD00080048E204000045
:101E000030B50F4B051C0F4889B001241C600460DD
:101E100001A800F015FD0C48002180225301049117
:101E20000391059106910791019001A9281C029345
:101E300000F0CEFC281C211C00F012FD09B030BDC2
:101E4000FC0C0020800D0020FFD870000000000076
:101E5000F0B51E4F0C1CFA2185B0051C4900381C3A
:101E600002920393FEF78CFB012200282BD18023E2
:101E7000980180260090211C281C039AB30400F0CE
:101E8000FFFC029C039A0299E6B25318D8B2B04202
:101E900015D021786526A9620134281C402100F064
:101EA00007FD0028EED1013E0120F6B2FEF740FB0F
:101EB000002EF2D1381CFEF783FB012203E0381C10
:101EC000FEF77EFB0022101C05B0F0BD800D002047
:101ED000F0B5061C802093B08000012100F018FEB0
:101EE0008021C800012100F013FE374B374A01253D
:101EF0001D6000211560E1244022354801F080F981
:101F0000670240220021334801F07AF901970C2042
:101F1000314F002401A90590301C029403940494CD
:101F2000069401F01DF8381C00F022FB311C284BF0
:101F300028318020079141010893102280231091BD
:101F4000381C07A9254F0C930A9409920B940D9401
:101F50000E94119400F04CFB2A1C301C802101F0DF
:101F60005FF8381C00F004FB1A49321C4020802323
:101F70000A9024328020079208915A0109940B9408
:101F80000D940C900E941194381C07A920241092E3
:101F90000F9400F02DFB301C2A1C402101F040F86A
:101FA000381C2A1C022100F063FB0D4B80210A0122
:101FB0001A60381C291C00F04BFB301C291C01F056
:101FC0001FF813B0F0BDC046840D0020F40C0020B3
:101FD000000D0020400D0020440002405800024047
:101FE00000E100E000000000000000000000000030
:101FF000F8B5164B0F1C151C984224D1144E1549E8
:10200000301CFEF7BDFA00281DD12C1C402D00D934
:102010004024114DA4B2391C221C281C01F048F8A0
:102020000E4B012219688020914319600C498001F0
:102030004F6838434860DD605C601C68301C224398
:102040001A60FEF7BDFA0120F8BDC0460038014015
:10205000840D0020FFFF0000000D0020440002401E
:10206000000002400000000000000000000000002E
:10207000F8B50F4E0D1C141CB04216D10D4FFA21AD
:10208000381C4900FEF77CFA00280ED1013C0A4BAF
:10209000A4B29C4206D0287801353085F269120638
:1020A000FCD5F3E7381CFEF78BFA0120F8BDC046DB
:1020B00000380140F40C0020FFFF00000000000089
:1020C00038B5051C081C0C1C01F02AF9211C82B231
:1020D000281CFFF7CDFF38BD000000000000000005
:1020E00008B5044B011C1878002802D00248FFF7FD
:1020F000E7FF08BD84010020003801400000000017
:1021000070B5234B90B0051E9D423ED12148224917
:10211000012606600E60281C002100F0D1FC1F4C37
:10212000E02082236A46C100B34008201480538017
:102130000024918090810723281C6946D480148153
:102140005481D481138200F08BFC311C281C00F0D8
:10215000B7FC05A800F06CFA09940B940C940D944C
:102160000F940F4806940894802461018022059002
:102170000E9110230B4805A90A92079300F038FA34
:10218000281C0221321C00F0B3FC10B070BDC04608
:1021900000300140880D0020F80C002000C0FFFF37
:1021A0000C30014030000240000000000000000040
:1021B000F7B5134B0F1C0092984201D001201DE08F
:1021C000104D1149281CFEF7DBF9041EF6D10F4B08
:1021D000012219688026914319600D4948680190D1
:1021E000B000019E06434E60DF60009F281C5F60C8
:1021F00019680A431A60FEF7E3F9201CFEBDC046C9
:1022000000300140880D0020FFFF00003000024038
:10221000000002400000000000000000000000007C
:1022200010B5041C01F07CF8231C01381A1B8242F3
:1022300006DA1A78215C1970225401330138F5E767
:1022400010BD0000000000000000000000000000C1
:10225000F7B5C217871801900C1C57400026381C90
:102260000A21FEF713F83031A155381C0A21FDF779
:10227000B7FF751C071E01DD2E1CF0E7019B002B2C
:1022800002DA2D206055B51C00216155201CFFF796
:10229000C7FFF7BD000000000000000000000000C4
:1022A00000B5031C00200139C9B2FF2904D01A78F7
:1022B00001338018C0B2F6E700BD00000000000046
:1022C00000B50023084AD8B29A181178AB2904D176
:1022D0005278CD2A01D1C3B203E001333F2BF1D1B3
:1022E000FF2358B200BDC046400D00200000000092
:1022F00008B5044B00201956034A04318818FFF72B
:102300009FFC08BD930D0020400D00200000000040
:1023100008B5031C0A1C0348191CFFF769FE0020BE
:1023200008BDC04600380140000000000000000069
:1023300008B502482421FFF7EBFF08BDCC0C0020B4
:1023400008B502480621FFF7E3FF08BD8C0D002009
:1023500008B502480A21FFF7DBFF08BDA80C0020E2
:10236000013808B5012303280FD8FDF7D9FE02056F
:10237000080BFFF7EDFF07E0FFF7E2FF04E0FFF7D0
:10238000D7FF01E0FFF7B4FF0023181C08BD0000D1
:10239000F7B5FA20FEF7CCF8104E3378002BF8D0C2
:1023A000FFF78EFF0E4908700028F2DB0D4D2C1848
:1023B000A0780190E778201C391CFFF771FFE25DDF
:1023C0008242E6D1002401983470FFF7C9FF281C2F
:1023D000211C402200F014FFDBE7C046920D0020D4
:1023E000930D0020400D00200000000000000000C0
:1023F000064B80221968900200B5014205D0596849
:10240000012208435860024B1A7000BD00000240D0
:10241000920D0020000000000000000000000000FD
:102420000B688A6810B51A43CB68C4681A430B69F5
:102430001A434B6909791A43034B234013434C0356
:102440002343C36010BDC04603D2FFFF000000005D
:102450000023036003718360C360036143617047BD
:1024600000B583680122002900D102221343836052
:1024700000BD00000000000000000000000000009F
:10248000064B00B51968002803D0802002040A43D7
:1024900001E0034A0A401A6000BDC0460827014017
:1024A000FFFF7FFF000000000000000000000000B0
:1024B000836A194381624261704700000000000096
:1024C0008268802319061143F02200B5130281604F
:1024D0008168013BCA0FD107002B01D00029F7D139
:1024E0008368002B01DB006C00E0002000BD0000D1
:1024F00083680422134383607047000000000000DB
:1025000000B50123C268002901D0134301E09A43BA
:10251000131CC36000BD00000000000000000000AC
:10252000C36802229343C360C3681943C160704704
:1025300000B5CB0103D58268044B134000E003686B
:102540000B40181C431E984100BDC046FFFFFFFE14
:1025500000B589004118044B884202D004C81A60B3
:10256000F9E7186800BDC0460030024000000000D6
:102570000268184B00211340174A00B50360016040
:1025800041608160C160904203D114480F214368CB
:102590001DE0134B984203D11048F021436816E028
:1025A0001049884204D10D48F02341681B010EE018
:1025B0000D4A904204D10948F0224168130206E016
:1025C0000A4B984205D10548F022416813030B439A
:1025D000436000BDFEFF0000080002400000024012
:1025E0001C000240300002404400024058000240FB
:1025F00002680D4B10B51A408C680B6A23430C69B6
:1026000023434C6923438C692343CC6923434C6A9D
:1026100023438C6A234313430360CA680B684968E9
:1026200042608360C16010BD0F80FFFF00000000AA
:102630000023036043608360C3600361436183617F
:10264000C3610362436283627047000000000000C0
:1026500000B5002903D0036801210B4302E00268A2
:10266000014B1340036000BDFEFF000000000000AE
:1026700000B50368002A02D01943016001E08B43D2
:10268000036000BD0000000000000000000000002A
:10269000024B19680840431E9841704700000240F1
:1026A000014B58607047C046000002400000000027
:1026B000044B00B51A69110603D503480349586055
:1026C000596000BD0020024023016745AB89EFCD72
:1026D000024B80211A690A431A61704700200240A8
:1026E000014BD8607047C046002002400000000047
:1026F000084B0120DA6800B5024209D1D9680220EE
:10270000C90605D4D8680423184043425841033011
:1027100000BDC04600200240000000000000000094
:1027200010B5041CFFF7E4FF012805D1002C05D0EB
:10273000FFF7DEFF013CF7E7002C00D1052010BDBC
:10274000F7B5071CB020002300030E1C0193FFF710
:10275000E7FF042818D10D4C01252169B2B22943A5
:10276000B023216118033A80FFF7DAFF042808D16B
:1027700002370197019F360CB0203E800003FFF71F
:10278000CFFF2169A9432161FEBDC0460020024060
:1027900070B5061CB0200003FFF7C2FF042810D15B
:1027A000084C0225236940222B432361666121697D
:1027B000B026114321613003FFF7B2FF2369AB4319
:1027C000236170BD002002400000000000000000F6
:1027D000026801239A43026030B5134A04688D6889
:1027E00022402C024D6822432A4302600C680F4AA3
:1027F0002240026105688A690C692B430360144317
:1028000000238360C3608460856880231C022C439E
:102810008460CD680268064B2A43026044684969B7
:1028200023400B43436030BDFFE0CF00FFFFFFF0CC
:10283000FF7FFF0700000000000000000000000014
:10284000802200231102036043608360C360036140
:10285000416183617047000000000000000000003B
:1028600000B501230268002901D0134301E09A4317
:10287000131C036000BD0000000000000000000009
:102880008905890D10B50B43446805490C40234365
:10289000029C110423431A1C0A43426010BDC04627
:1028A000009800FC00000000000000000000000094
:1028B00080690840431E98417047000000000000F6
:1028C00070B582780378002A19D003249E080F4A35
:1028D000C0362340B100A340FF248D58261C9E40E3
:1028E000B5434678B60134409C402B1C23438B50A3
:1028F00000781F2505400121A940116005E01F2037
:1029000003400121024D9940E96770BD00E100E0FC
:1029100004E100E0000000000000000000000000F2
:10292000054B00B50122596B002801D00A4301E094
:1029300091430A1C5A6300BD0010024000000000D1
:10294000084B094A59680A405A605A6881B20A43DA
:102950005A60196B054A000C0A401A63196B084348
:102960001863704700100240FFBFFFFFFFFEFFFF2C
:1029700070B5334D0C236A68041C1340042B01D03E
:10298000082B02D02F48206012E06E686868B10200
:102990000E0F0236C10302D42B4B5E4307E0E96AF7
:1029A0000F22114001312748FDF7CAFB464326603C
:1029B0006968264B0E06320F20689E5C011CF140B0
:1029C00061606E680A1C71054E0F9B5DDA40A26063
:1029D000296BC90501D41E4906E0194E73685904D4
:1029E00001D4510800E09108E1602E6B710601D41A
:1029F000184901E08023190221612E6BF10602D4EF
:102A0000104B636100E060612D6B03260C49354279
:102A100001D1A26112E00A6B3240012A01D1A0610A
:102A20000CE0086B3040022802D18025290204E026
:102A30000B6B1E40032E01D10249A16170BDC0463F
:102A40000010024000127A0000093D0085010020BC
:102A5000809FD500128000000000000000000000F0
:102A600010B50388C1229201CC891A400B882343F8
:102A7000CC8823430C8923434C8923438C892343EB
:102A8000134303808288094B8C881340234383803F
:102A90000A8A0424028203884988A3430B430380E3
:102AA000828B034B1340838310BDC046FFF0FFFFB2
:102AB000FFF7FFFF00000000000000000000000022
:102AC00000B540230288002901D0134301E09A4356
:102AD000131C038000BD0000000000000000000087
:102AE00001737047000000000000000000000000BB
:102AF00000B58388002A02D01943818001E08B430E
:102B0000838000BD00000000000000000000000005
:102B1000054B00B51A68002902D01043186001E087
:102B200082431A6000BDC046000001400000000062
:102B3000F0B5058C0124A5430584068BF327058C8D
:102B4000BE4332430A26B5431B012C431A4392B2BB
:102B5000214302830184F0BD00000000000000005A
:102B6000F0B5058C1024A5430584078B094E058C10
:102B7000374016023A1C324397B2A02295432C43A9
:102B80001B0309011F430C43BEB2A4B20683048495
:102B9000F0BDC046FF0C0000000000000000000077
:102BA000154A30B50388904206D08024E505A84236
:102BB00002D0124CA04203D170254C88AB43234372
:102BC0000F4DA84203D00F4D0C892B4023430380A7
:102BD0004B68C3620C880485904208D00A4A904230
:102BE00005D00A4DA84202D0094B984201D1897AFA
:102BF00001860124848230BD002C01400004004085
:102C000000100040FFFCFFFF004001400044014075
:102C1000004801400000000000000000000000002B
:102C20000388082293430380038819430180704777
:102C300000B501230288002901D0134301E09A4323
:102C4000131C038000BD0000000000000000000015
:102C500070B5038C012293430384058C8288048B16
:102C600073260B88B4430226B5431C434E888B89D8
:102C700033432B430F4DA84208D00F4EB04205D02E
:102C80000E4DA84202D00E4EB0420DD10825CE897D
:102C9000AB4333430425AB438E880A4D33432A406C
:102CA0004E8A0D8A35432A438968828004834163B2
:102CB000038470BD002C01400040014000440140ED
:102CC00000480140FFFCFFFF000000000000000082
:102CD000038C30B5102293430384038C184C8288F4
:102CE000058B2C400D882D022C432025AB438D896C
:102CF000A4B22D012B434D889BB22D012B43114DC6
:102D00009BB2A84215D18025AB43CD892D012B4321
:102D10009BB24025AB438D882D012B430A4D9BB2BE
:102D20002A400D8AAD002A434D8A92B2AD002A4353
:102D300092B28968828004838163038430BDC04677
:102D4000FF8CFFFF002C0140FFF3FFFF000000009D
:102D5000028C194B30B513400384058C8288848B18
:102D600073239C430B881C43144B2B408D892D02ED
:102D70002B434D889BB22D022B43114D9BB2A84291
:102D800014D1104D2B40CD892D022B430E4D2B40DD
:102D90008D882D022B430D4D9BB22A400D8A2D01AB
:102DA0002A434D8A92B22D012A4392B289688280C9
:102DB0008483C163038430BDFFFEFFFFFFFDFFFF7F
:102DC000002C0140FFF7FFFFFFFB0000FFCFFFFFDC
:102DD000028C134B30B513400384058C114A838851
:102DE000848B14400A88120214430F4AA4B22A406A
:102DF0008D892D032A434D8892B22D032A430B4D12
:102E000092B2A84205D10A4D2B400D8AAD012B4349
:102E10009BB28968838084830164028430BDC0468C
:102E2000FFEFFFFFFF8CFFFFFFDFFFFF002C0140E4
:102E3000FFBFFFFF000000000000000000000000D6
:102E4000038B0C2293430383038B19430183704745
:102E5000028B044B090213400383028B11438BB294
:102E600003837047FFF3FFFF000000000000000035
:102E7000838B0C2293438383838B19438183704715
:102E8000828B044B090213408383828B11438BB2E4
:102E900083837047FFF3FFFF000000000000000085
:102EA000F8B5041C08880D1CAA8849882B890028BD
:102EB00007D1201CFFF73CFEE988201CFFF7C0FF6C
:102EC00043E0042807D1201CFFF74AFEE988201CB4
:102ED000FFF7BEFF39E0268C08281AD11B48304086
:102EE0002084A78BF326B7431E013B1C208C334361
:102EF0000E0217499FB20140314380233A4388B202
:102F00005F000743A2832784E988201CFFF7B0FFF6
:102F10001BE0104F1B0337402784A78B0E4E208CDD
:102F2000374016023A1C324397B20A030B493B431F
:102F300001401143802788B29EB27B010343A683E0
:102F40002384E988201CFFF79BFFF8BDFFFEFFFFED
:102F5000FFF5FFFFFFEFFFFFFF0C0000FF5F00002A
:102F6000036801229343F0B50360041C1F4E4068C0
:102F70000D1C896806400E4366606868EA68276829
:102F80002E691B4B02431F4032433A432260A16823
:102F9000184F6B690F4089B01F43A76001A8FFF766
:102FA000E7FC154A944201D1079E00E0039E206889
:102FB0002D68010400D57600291C301CFDF7C0F8EF
:102FC000291C071C301CFDF7FFF86B080022206845
:102FD00099425241B918020404D5084F0D076E0FEB
:102FE000394031438BB2A38109B0F0BDFFCFFFFF61
:102FF000F3E9FFFFFFFCFFFF00380140F0FF000096
:1030000000B501230268002901D0134301E09A436F
:10301000131C036000BD0000000000000000000061
:1030200000B58368002A02D01943816001E08B4318
:10303000836000BD000000000000000000000000F0
:10304000034B044A59680A40104358607047C04611
:10305000002C00407FFEFFFF000000000000000089
:1030600082B000230193064B7F225968914301915E
:10307000019902400A4301920198586002B07047DA
:10308000002C0040000000000000000000000000D4
:103090007F230249184008607047C046002C00405A
:1030A00080230249184308607047C046002C004046
:1030B000F0B54F464646C0B40F2A72D90B1C0343E5
:1030C0009C0700D090E0171C103F3C0901342701F9
:1030D0000C683B1C0460103BDE064B68CD19436056
:1030E0008C68F60F8460CB68041CC3600B1C103323
:1030F00010349D4227D0002E0BD0196821605E68E5
:1031000066609968A160DE681033E66010349D4205
:1031100019D0196821605E6866609968A160DE68F0
:10312000191CE6601B69261C23614C6974618B695C
:10313000B361CC691031F4610B1C1036341C1033B0
:1031400010349D42E5D13F180F21B84611400329A4
:103150004DD904398E08B3000433EC18A446043B5F
:103160002C1C5F0708CC4146B14608C1FE0F6445E0
:103170000FD0002E03D080CC80C1644509D0271C1D
:1031800008CF0E1C08C664684C603C1D311D6445A8
:10319000F5D1494601318E000327AD193A40464426
:1031A00001E00D1C061C002A1AD02F78B218F34338
:1031B000D1180124377001360C40013596420FD0EA
:1031C000002C05D02B78013533700136964207D09C
:1031D000297831706C780235747002369642F7D1D6
:1031E0000CBC90469946F0BD061C0D1CDDE73E1C4C
:1031F0000A1CD8E7000000000000000000000000EA
:10320000F0B5830700D181E0541E002A7DD0CDB2F5
:10321000031C0326E70711D5431C0570334211D068
:103220001D700133941E33420CD0621E002C6CD0F2
:103230001D700133141C334204D0013C1D70013356
:103240003342F2D1032C49D9FF220A4017023A43F4
:1032500015042A430F2C5CD9261C103E3709013770
:103260003D015E19103DEF061A605A609A60DA60FF
:103270001033FD0F9E4213D0002D06D01A605A6005
:103280009A60DA6010339E420AD01A605A609A60DF
:10329000DA601A615A619A61DA6120339E42F4D190
:1032A0000F231C40351C331C032C17D9261FB708CD
:1032B0000137BE00AB19043E770704C5FE0F9D42DF
:1032C0000AD0002E02D004C59D4205D02F1C04C791
:1032D0006A603D1D9D42F9D103221440002C14D098
:1032E0001C19DD43C9B266190127197001333E402C
:1032F000A3420AD0002E03D019700133A34204D098
:10330000197059700233A342FAD1F0BD031C141C8A
:1033100098E71D1CCAE7C04600000000000000003E
:103320000023C25C0133002AFBD1581E7047C046FF
:1033300030020020F0070020E533000851080008A3
:1033400000000000E8020020A80A0020DF35000885
:103350004108000800000000E0030020A00F00204A
:10336000EE33000831080008000000005805002076
:10337000180D0020F63300082108000800000000A6
:1033800050060020100E0020FF330008110800082E
:103390000000000048070020080F00200734000844
:1033A000010800080000000000000000000000000C
:1033B00012340008000000000000000000000000BF
:1033C0000D0A2A2A57574447205265736574212AEB
:1033D0002A0D0A0D0A00575744472053746172742E
:1033E00065640D0A005761746368646F670044691F
:1033F00073706C61790049676E6974696F6E005310
:10340000656E736F72730053657269616C20436FF0
:103410006D0069646C6500000000000000000000A1
:10342000FFAFABAB00000000FFFFFFFF4055554171
:10343000FFFFFFFF0000001110210000BAAAAEF547
:1034400000000000FFFFFFFF55055555FFFFFFFF80
:103450001100001102000000FFFFF5030000000052
:10346000FFFFFFFF55555555FFFCFFFF0000000013
:10347000000000000000000000000000FFFFFFFF50
:1034800000000000FFFFFFFF000000000000000040
:103490000CF0000000000000FFFFFFFF05500000DF
:1034A000FFFFFFFF00000000000000000000000020
:1034B00073746172744C6967687420436F6D706CCB
:1034C0006574650D0A0000000000000000000000A7
:1034D000737461727449676E6974696F6E20436FAB
:1034E0006D706C6574650D0A00000000000000003E
:1034F000737461727441646320436F6D706C6574A2
:10350000650D0A000000000000000000000000003F
:1035100067370008A10D000800000000733700089D
:10352000E10C000800000000D1350008410D000842
:10353000000000000000000000000000000000008B
:103540001E3700080400000090350008000000004D
:103550005637000803000000103500080000000086
:10356000083700080000000040350008D536000884
:10357000011200080000000011370008D1100008F7
:10358000000000000000000000000000000000003B
:103590005D37000800000000503500082C37000897
:1035A000611000080000000035370008910F000886
:1035B000000000004A370008E10E0008000000008B
:1035C0005472616374696F6E20636F6E74726F6C96
:1035D0000053686966746572005368696674204CAC
:1035E00069676874004F70656E544353007374616B
:1035F0007274446973706C617920436F6D706C658F
:1036000074650D0A00446973706C6179204F4646F9
:103610000D0A00446973706C6179204F4E0D0A00E9
:103620004765617273204C6561726E696E67004711
:1036300065617200536869667465722053656E73C4
:103640006F722053657475700053686966742061E9
:10365000206765617200746F20646574656374200F
:10366000646972656374696F6E004E6F726D616C30
:1036700020646972656374696F6E00526576657265
:10368000736520646972656374696F6E0043757455
:10369000204D6F64650050726F6772657373697651
:1036A00065004E6F726D616C0056657273696F6E66
:1036B00000437574206D6F64653A005368696674E1
:1036C00065723A0054433A005368696674204C6945
:1036D0006768743A00446961676E6F7374696373F5
:1036E0000052504D3A0053706565643A00544320CF
:1036F0005377697463683A00564241543A004D6109
:10370000696E204D656E750053657474696E6773DC
:1037100000496E666F726D6174696F6E73005365F8
:103720007474696E6773204D656E750043757420FF
:103730006D6F646500536869667465722073656EA9
:10374000736F7220736574757000476561727320C2
:103750006C6561726E00546F67676C652046756EAC
:103760006374696F6E73005368696674206C69676F
:103770006874005472616374696F6E20436F6E7475
:10378000726F6C00000000000000000000000000EC
:10379000456E61626C65640000000000000000007E
:1037A00044697361626C6564000000000000000001
:1037B000FE3600080300000060350008000000002D
:1037C000302E31000000000000000000000000006A
:1037D000000000000000004F000000070007001478
:1037E0007F147F14242A7F2A122313086462364927
:1037F0005522200005030000001C22410000412248
:103800001C0014083E081408083E08085030000048
:103810000008080808080060600000201008040282
:103820003E5149453E00427F400042615149462198
:1038300041454B311814127F1027454545393C4A04
:103840004949300171090503364949493606494954
:10385000291E0036360000005636000008142241AA
:103860000014141414140041221408020151090612
:103870003E415D551E7E1111117E7F494949363EFC
:10388000414141227F4141221C7F494949417F09F1
:103890000909013E4149497A7F0808087F00417FB4
:1038A00041002040413F017F081422417F404040B9
:1038B000407F020C027F7F0408107F3E4141413E61
:1038C0007F090909063E4151215E7F0919294626D3
:1038D0004949493201017F01013F4040403F1F20DB
:1038E00040201F3F4038403F6314081463070870AE
:1038F00008076151494543007F4141000204081017
:10390000200041417F000402010204404040404049
:10391000000003050020545454787F444444383850
:1039200044444444384444447F38545454180404B0
:103930007E0505085454543C7F0804047800447DF7
:1039400040002040443D007F1028440000417F405B
:10395000007C047C04787C080404783844444438AF
:103960007C14141408081414147C7C080404004803
:103970005454542404043F44443C4040207C1C20C4
:1039800040201C3C4030403C44281028440C5050FF
:10399000503C4464544C44083641410000007700D8
:1039A00000004141360808082A1C08081C2A08089B
:1039B000FFFFFFFFFF00000000000000000000000C
:1039C00005082080D037000800000000000000003B
:1039D0000000000000000000065F5F060000000716
:1039E0000700070700147F7F147F7F14242E6B6B62
:1039F0003A1200466630180C6662307A4F5D377AAC
:103A00004804070300000000001C3E634100000062
:103A100041633E1C0000082A3E1C1C3E2A08083E4A
:103A20003E0808000080E060000000080808080860
:103A30000800000060600000006030180C06030100
:103A40003E7F71594D7F3E40427F7F404000627310
:103A500059496F6600226349497F3600181C165386
:103A60007F7F50276745457D39003C7E4B49793043
:103A700000030371790F0700367F49497F3600063E
:103A80004F49693F1E00000066660000000080E6A6
:103A900066000000081C366341000024242424240E
:103AA0002400004163361C0800020351590F060030
:103AB0003E7F415D5D1F1E7C7E13137E7C00417F37
:103AC0007F49497F361C3E6341416322417F7F41EC
:103AD000633E1C417F7F495D4163417F7F491D01FA
:103AE000031C3E63415173727F7F08087F7F000093
:103AF000417F7F410000307040417F3F01417F7F27
:103B0000081C7763417F7F414060707F7F0E1C0EF1
:103B10007F7F7F7F060C187F7F1C3E6341633E1CC6
:103B2000417F7F49090F061E3F21717F5E00417F63
:103B30007F09197F66266F4D5973320003417F7FDD
:103B40004103007F7F40407F7F001F3F60603F1F39
:103B5000007F7F3018307F7F43673C183C67430706
:103B60004F78784F0700476371594D6773007F7F27
:103B7000414100000103060C1830600041417F7F85
:103B80000000080C0603060C08808080808080807E
:103B900000000307040000207454543C7840417F27
:103BA0003F48487830387C44446C28003078484995
:103BB0003F7F40387C54545C1800487E7F490302A4
:103BC0000038BCA4A4FC7800417F7F08047C780006
:103BD000447D7D40000060E08080FD7D00417F7F6E
:103BE00010386C4400417F7F400000787C1C381CFA
:103BF0007C787C7C04047C7800387C44447C3800ED
:103C000000FCFCA4243C18183C24A4F8FC84447C4C
:103C1000784C041C18485C545474240000043E7F03
:103C20004424003C7C40403C7C401C3C60603C1C8C
:103C3000003C7C7038707C3C446C3810386C443CE0
:103C4000BCA0A0FC7C004C64745C4C640008083E82
:103C500077414100000000777700004141773E083E
:103C6000080002030103020301FF8181818181FFBA
:103C70000E9F91B1FB4A0000000000000000000010
:103C800007082080D0390008000000000000000074
:103C9000737461727453656E736F727320436F6DCA
:103CA000706C6574650D0A0052504D3A20005374D3
:103CB0007261696E2067617567653A200054432020
:103CC0005377697463683A20000000000000000028
:083CD000476F204261636B00A5
:103CD8000000FA00010000000001020304010203D1
:083CE8000406070809000000B2
:04000005080002D11C
:00000001FF
